{
	"contracts/match3/EtherGame.sol": {
		"EtherGame": {
			"abi": [
				{
					"inputs": [],
					"name": "claimReward",
					"outputs": [],
					"stateMutability": "nonpayable",
					"type": "function"
				},
				{
					"inputs": [],
					"name": "deposit",
					"outputs": [],
					"stateMutability": "payable",
					"type": "function"
				},
				{
					"inputs": [],
					"name": "targetAmount",
					"outputs": [
						{
							"internalType": "uint256",
							"name": "",
							"type": "uint256"
						}
					],
					"stateMutability": "view",
					"type": "function"
				},
				{
					"inputs": [],
					"name": "winner",
					"outputs": [
						{
							"internalType": "address",
							"name": "",
							"type": "address"
						}
					],
					"stateMutability": "view",
					"type": "function"
				}
			],
			"devdoc": {
				"kind": "dev",
				"methods": {},
				"version": 1
			},
			"evm": {
				"assembly": "    /* \"contracts/match3/EtherGame.sol\":27:661  contract EtherGame {... */\n  mstore(0x40, 0x80)\n    /* \"contracts/match3/EtherGame.sol\":79:86  7 ether */\n  0x6124fee993bc0000\n    /* \"contracts/match3/EtherGame.sol\":52:86  uint public targetAmount = 7 ether */\n  0x00\n  sstore\n    /* \"contracts/match3/EtherGame.sol\":27:661  contract EtherGame {... */\n  callvalue\n  dup1\n  iszero\n  tag_1\n  jumpi\n  0x00\n  dup1\n  revert\ntag_1:\n  pop\n  dataSize(sub_0)\n  dup1\n  dataOffset(sub_0)\n  0x00\n  codecopy\n  0x00\n  return\nstop\n\nsub_0: assembly {\n        /* \"contracts/match3/EtherGame.sol\":27:661  contract EtherGame {... */\n      mstore(0x40, 0x80)\n      jumpi(tag_1, lt(calldatasize, 0x04))\n      shr(0xe0, calldataload(0x00))\n      dup1\n      0x953b8fb8\n      eq\n      tag_2\n      jumpi\n      dup1\n      0xb88a802f\n      eq\n      tag_3\n      jumpi\n      dup1\n      0xd0e30db0\n      eq\n      tag_4\n      jumpi\n      dup1\n      0xdfbf53ae\n      eq\n      tag_5\n      jumpi\n    tag_1:\n      0x00\n      dup1\n      revert\n        /* \"contracts/match3/EtherGame.sol\":52:86  uint public targetAmount = 7 ether */\n    tag_2:\n      callvalue\n      dup1\n      iszero\n      tag_6\n      jumpi\n      0x00\n      dup1\n      revert\n    tag_6:\n      pop\n      tag_7\n      tag_8\n      jump\t// in\n    tag_7:\n      mload(0x40)\n      tag_9\n      swap2\n      swap1\n      tag_10\n      jump\t// in\n    tag_9:\n      mload(0x40)\n      dup1\n      swap2\n      sub\n      swap1\n      return\n        /* \"contracts/match3/EtherGame.sol\":447:659  function claimReward() public {... */\n    tag_3:\n      callvalue\n      dup1\n      iszero\n      tag_11\n      jumpi\n      0x00\n      dup1\n      revert\n    tag_11:\n      pop\n      tag_12\n      tag_13\n      jump\t// in\n    tag_12:\n      stop\n        /* \"contracts/match3/EtherGame.sol\":126:434  function deposit() public payable {... */\n    tag_4:\n      tag_14\n      tag_15\n      jump\t// in\n    tag_14:\n      stop\n        /* \"contracts/match3/EtherGame.sol\":92:113  address public winner */\n    tag_5:\n      callvalue\n      dup1\n      iszero\n      tag_16\n      jumpi\n      0x00\n      dup1\n      revert\n    tag_16:\n      pop\n      tag_17\n      tag_18\n      jump\t// in\n    tag_17:\n      mload(0x40)\n      tag_19\n      swap2\n      swap1\n      tag_20\n      jump\t// in\n    tag_19:\n      mload(0x40)\n      dup1\n      swap2\n      sub\n      swap1\n      return\n        /* \"contracts/match3/EtherGame.sol\":52:86  uint public targetAmount = 7 ether */\n    tag_8:\n      sload(0x00)\n      dup2\n      jump\t// out\n        /* \"contracts/match3/EtherGame.sol\":447:659  function claimReward() public {... */\n    tag_13:\n        /* \"contracts/match3/EtherGame.sol\":509:515  winner */\n      0x01\n      0x00\n      swap1\n      sload\n      swap1\n      0x0100\n      exp\n      swap1\n      div\n      0xffffffffffffffffffffffffffffffffffffffff\n      and\n        /* \"contracts/match3/EtherGame.sol\":495:515  msg.sender == winner */\n      0xffffffffffffffffffffffffffffffffffffffff\n      and\n        /* \"contracts/match3/EtherGame.sol\":495:505  msg.sender */\n      caller\n        /* \"contracts/match3/EtherGame.sol\":495:515  msg.sender == winner */\n      0xffffffffffffffffffffffffffffffffffffffff\n      and\n      eq\n        /* \"contracts/match3/EtherGame.sol\":487:530  require(msg.sender == winner, \"Not winner\") */\n      tag_22\n      jumpi\n      mload(0x40)\n      0x08c379a000000000000000000000000000000000000000000000000000000000\n      dup2\n      mstore\n      0x04\n      add\n      tag_23\n      swap1\n      tag_24\n      jump\t// in\n    tag_23:\n      mload(0x40)\n      dup1\n      swap2\n      sub\n      swap1\n      revert\n    tag_22:\n        /* \"contracts/match3/EtherGame.sol\":541:550  bool sent */\n      0x00\n        /* \"contracts/match3/EtherGame.sol\":556:566  msg.sender */\n      caller\n        /* \"contracts/match3/EtherGame.sol\":556:571  msg.sender.call */\n      0xffffffffffffffffffffffffffffffffffffffff\n      and\n        /* \"contracts/match3/EtherGame.sol\":579:600  address(this).balance */\n      selfbalance\n        /* \"contracts/match3/EtherGame.sol\":556:605  msg.sender.call{value: address(this).balance}(\"\") */\n      mload(0x40)\n      tag_25\n      swap1\n      tag_26\n      jump\t// in\n    tag_25:\n      0x00\n      mload(0x40)\n      dup1\n      dup4\n      sub\n      dup2\n      dup6\n      dup8\n      gas\n      call\n      swap3\n      pop\n      pop\n      pop\n      returndatasize\n      dup1\n      0x00\n      dup2\n      eq\n      tag_29\n      jumpi\n      mload(0x40)\n      swap2\n      pop\n      and(add(returndatasize, 0x3f), not(0x1f))\n      dup3\n      add\n      0x40\n      mstore\n      returndatasize\n      dup3\n      mstore\n      returndatasize\n      0x00\n      0x20\n      dup5\n      add\n      returndatacopy\n      jump(tag_28)\n    tag_29:\n      0x60\n      swap2\n      pop\n    tag_28:\n      pop\n        /* \"contracts/match3/EtherGame.sol\":540:605  (bool sent, ) = msg.sender.call{value: address(this).balance}(\"\") */\n      pop\n      swap1\n      pop\n        /* \"contracts/match3/EtherGame.sol\":623:627  sent */\n      dup1\n        /* \"contracts/match3/EtherGame.sol\":615:652  require(sent, \"Failed to send Ether\") */\n      tag_30\n      jumpi\n      mload(0x40)\n      0x08c379a000000000000000000000000000000000000000000000000000000000\n      dup2\n      mstore\n      0x04\n      add\n      tag_31\n      swap1\n      tag_32\n      jump\t// in\n    tag_31:\n      mload(0x40)\n      dup1\n      swap2\n      sub\n      swap1\n      revert\n    tag_30:\n        /* \"contracts/match3/EtherGame.sol\":447:659  function claimReward() public {... */\n      pop\n      jump\t// out\n        /* \"contracts/match3/EtherGame.sol\":126:434  function deposit() public payable {... */\n    tag_15:\n        /* \"contracts/match3/EtherGame.sol\":191:198  1 ether */\n      0x0de0b6b3a7640000\n        /* \"contracts/match3/EtherGame.sol\":178:187  msg.value */\n      callvalue\n        /* \"contracts/match3/EtherGame.sol\":178:198  msg.value == 1 ether */\n      eq\n        /* \"contracts/match3/EtherGame.sol\":170:228  require(msg.value == 1 ether, \"You can only send 1 Ether\") */\n      tag_34\n      jumpi\n      mload(0x40)\n      0x08c379a000000000000000000000000000000000000000000000000000000000\n      dup2\n      mstore\n      0x04\n      add\n      tag_35\n      swap1\n      tag_36\n      jump\t// in\n    tag_35:\n      mload(0x40)\n      dup1\n      swap2\n      sub\n      swap1\n      revert\n    tag_34:\n        /* \"contracts/match3/EtherGame.sol\":238:250  uint balance */\n      0x00\n        /* \"contracts/match3/EtherGame.sol\":253:274  address(this).balance */\n      selfbalance\n        /* \"contracts/match3/EtherGame.sol\":238:274  uint balance = address(this).balance */\n      swap1\n      pop\n        /* \"contracts/match3/EtherGame.sol\":303:315  targetAmount */\n      sload(0x00)\n        /* \"contracts/match3/EtherGame.sol\":292:299  balance */\n      dup2\n        /* \"contracts/match3/EtherGame.sol\":292:315  balance <= targetAmount */\n      gt\n      iszero\n        /* \"contracts/match3/EtherGame.sol\":284:332  require(balance <= targetAmount, \"Game is over\") */\n      tag_37\n      jumpi\n      mload(0x40)\n      0x08c379a000000000000000000000000000000000000000000000000000000000\n      dup2\n      mstore\n      0x04\n      add\n      tag_38\n      swap1\n      tag_39\n      jump\t// in\n    tag_38:\n      mload(0x40)\n      dup1\n      swap2\n      sub\n      swap1\n      revert\n    tag_37:\n        /* \"contracts/match3/EtherGame.sol\":357:369  targetAmount */\n      sload(0x00)\n        /* \"contracts/match3/EtherGame.sol\":346:353  balance */\n      dup2\n        /* \"contracts/match3/EtherGame.sol\":346:369  balance == targetAmount */\n      eq\n        /* \"contracts/match3/EtherGame.sol\":342:428  if (balance == targetAmount) {... */\n      iszero\n      tag_40\n      jumpi\n        /* \"contracts/match3/EtherGame.sol\":394:404  msg.sender */\n      caller\n        /* \"contracts/match3/EtherGame.sol\":385:391  winner */\n      0x01\n      0x00\n        /* \"contracts/match3/EtherGame.sol\":385:404  winner = msg.sender */\n      0x0100\n      exp\n      dup2\n      sload\n      dup2\n      0xffffffffffffffffffffffffffffffffffffffff\n      mul\n      not\n      and\n      swap1\n      dup4\n      0xffffffffffffffffffffffffffffffffffffffff\n      and\n      mul\n      or\n      swap1\n      sstore\n      pop\n        /* \"contracts/match3/EtherGame.sol\":342:428  if (balance == targetAmount) {... */\n    tag_40:\n        /* \"contracts/match3/EtherGame.sol\":126:434  function deposit() public payable {... */\n      pop\n      jump\t// out\n        /* \"contracts/match3/EtherGame.sol\":92:113  address public winner */\n    tag_18:\n      0x01\n      0x00\n      swap1\n      sload\n      swap1\n      0x0100\n      exp\n      swap1\n      div\n      0xffffffffffffffffffffffffffffffffffffffff\n      and\n      dup2\n      jump\t// out\n        /* \"#utility.yul\":7:125   */\n    tag_42:\n        /* \"#utility.yul\":94:118   */\n      tag_44\n        /* \"#utility.yul\":112:117   */\n      dup2\n        /* \"#utility.yul\":94:118   */\n      tag_45\n      jump\t// in\n    tag_44:\n        /* \"#utility.yul\":89:92   */\n      dup3\n        /* \"#utility.yul\":82:119   */\n      mstore\n        /* \"#utility.yul\":72:125   */\n      pop\n      pop\n      jump\t// out\n        /* \"#utility.yul\":131:497   */\n    tag_46:\n      0x00\n        /* \"#utility.yul\":294:361   */\n      tag_48\n        /* \"#utility.yul\":358:360   */\n      0x14\n        /* \"#utility.yul\":353:356   */\n      dup4\n        /* \"#utility.yul\":294:361   */\n      tag_49\n      jump\t// in\n    tag_48:\n        /* \"#utility.yul\":287:361   */\n      swap2\n      pop\n        /* \"#utility.yul\":370:463   */\n      tag_50\n        /* \"#utility.yul\":459:462   */\n      dup3\n        /* \"#utility.yul\":370:463   */\n      tag_51\n      jump\t// in\n    tag_50:\n        /* \"#utility.yul\":488:490   */\n      0x20\n        /* \"#utility.yul\":483:486   */\n      dup3\n        /* \"#utility.yul\":479:491   */\n      add\n        /* \"#utility.yul\":472:491   */\n      swap1\n      pop\n        /* \"#utility.yul\":277:497   */\n      swap2\n      swap1\n      pop\n      jump\t// out\n        /* \"#utility.yul\":503:869   */\n    tag_52:\n      0x00\n        /* \"#utility.yul\":666:733   */\n      tag_54\n        /* \"#utility.yul\":730:732   */\n      0x0c\n        /* \"#utility.yul\":725:728   */\n      dup4\n        /* \"#utility.yul\":666:733   */\n      tag_49\n      jump\t// in\n    tag_54:\n        /* \"#utility.yul\":659:733   */\n      swap2\n      pop\n        /* \"#utility.yul\":742:835   */\n      tag_55\n        /* \"#utility.yul\":831:834   */\n      dup3\n        /* \"#utility.yul\":742:835   */\n      tag_56\n      jump\t// in\n    tag_55:\n        /* \"#utility.yul\":860:862   */\n      0x20\n        /* \"#utility.yul\":855:858   */\n      dup3\n        /* \"#utility.yul\":851:863   */\n      add\n        /* \"#utility.yul\":844:863   */\n      swap1\n      pop\n        /* \"#utility.yul\":649:869   */\n      swap2\n      swap1\n      pop\n      jump\t// out\n        /* \"#utility.yul\":875:1241   */\n    tag_57:\n      0x00\n        /* \"#utility.yul\":1038:1105   */\n      tag_59\n        /* \"#utility.yul\":1102:1104   */\n      0x19\n        /* \"#utility.yul\":1097:1100   */\n      dup4\n        /* \"#utility.yul\":1038:1105   */\n      tag_49\n      jump\t// in\n    tag_59:\n        /* \"#utility.yul\":1031:1105   */\n      swap2\n      pop\n        /* \"#utility.yul\":1114:1207   */\n      tag_60\n        /* \"#utility.yul\":1203:1206   */\n      dup3\n        /* \"#utility.yul\":1114:1207   */\n      tag_61\n      jump\t// in\n    tag_60:\n        /* \"#utility.yul\":1232:1234   */\n      0x20\n        /* \"#utility.yul\":1227:1230   */\n      dup3\n        /* \"#utility.yul\":1223:1235   */\n      add\n        /* \"#utility.yul\":1216:1235   */\n      swap1\n      pop\n        /* \"#utility.yul\":1021:1241   */\n      swap2\n      swap1\n      pop\n      jump\t// out\n        /* \"#utility.yul\":1247:1613   */\n    tag_62:\n      0x00\n        /* \"#utility.yul\":1410:1477   */\n      tag_64\n        /* \"#utility.yul\":1474:1476   */\n      0x0a\n        /* \"#utility.yul\":1469:1472   */\n      dup4\n        /* \"#utility.yul\":1410:1477   */\n      tag_49\n      jump\t// in\n    tag_64:\n        /* \"#utility.yul\":1403:1477   */\n      swap2\n      pop\n        /* \"#utility.yul\":1486:1579   */\n      tag_65\n        /* \"#utility.yul\":1575:1578   */\n      dup3\n        /* \"#utility.yul\":1486:1579   */\n      tag_66\n      jump\t// in\n    tag_65:\n        /* \"#utility.yul\":1604:1606   */\n      0x20\n        /* \"#utility.yul\":1599:1602   */\n      dup3\n        /* \"#utility.yul\":1595:1607   */\n      add\n        /* \"#utility.yul\":1588:1607   */\n      swap1\n      pop\n        /* \"#utility.yul\":1393:1613   */\n      swap2\n      swap1\n      pop\n      jump\t// out\n        /* \"#utility.yul\":1619:2017   */\n    tag_67:\n      0x00\n        /* \"#utility.yul\":1799:1882   */\n      tag_69\n        /* \"#utility.yul\":1880:1881   */\n      0x00\n        /* \"#utility.yul\":1875:1878   */\n      dup4\n        /* \"#utility.yul\":1799:1882   */\n      tag_70\n      jump\t// in\n    tag_69:\n        /* \"#utility.yul\":1792:1882   */\n      swap2\n      pop\n        /* \"#utility.yul\":1891:1984   */\n      tag_71\n        /* \"#utility.yul\":1980:1983   */\n      dup3\n        /* \"#utility.yul\":1891:1984   */\n      tag_72\n      jump\t// in\n    tag_71:\n        /* \"#utility.yul\":2009:2010   */\n      0x00\n        /* \"#utility.yul\":2004:2007   */\n      dup3\n        /* \"#utility.yul\":2000:2011   */\n      add\n        /* \"#utility.yul\":1993:2011   */\n      swap1\n      pop\n        /* \"#utility.yul\":1782:2017   */\n      swap2\n      swap1\n      pop\n      jump\t// out\n        /* \"#utility.yul\":2023:2141   */\n    tag_73:\n        /* \"#utility.yul\":2110:2134   */\n      tag_75\n        /* \"#utility.yul\":2128:2133   */\n      dup2\n        /* \"#utility.yul\":2110:2134   */\n      tag_76\n      jump\t// in\n    tag_75:\n        /* \"#utility.yul\":2105:2108   */\n      dup3\n        /* \"#utility.yul\":2098:2135   */\n      mstore\n        /* \"#utility.yul\":2088:2141   */\n      pop\n      pop\n      jump\t// out\n        /* \"#utility.yul\":2147:2526   */\n    tag_26:\n      0x00\n        /* \"#utility.yul\":2353:2500   */\n      tag_78\n        /* \"#utility.yul\":2496:2499   */\n      dup3\n        /* \"#utility.yul\":2353:2500   */\n      tag_67\n      jump\t// in\n    tag_78:\n        /* \"#utility.yul\":2346:2500   */\n      swap2\n      pop\n        /* \"#utility.yul\":2517:2520   */\n      dup2\n        /* \"#utility.yul\":2510:2520   */\n      swap1\n      pop\n        /* \"#utility.yul\":2335:2526   */\n      swap2\n      swap1\n      pop\n      jump\t// out\n        /* \"#utility.yul\":2532:2754   */\n    tag_20:\n      0x00\n        /* \"#utility.yul\":2663:2665   */\n      0x20\n        /* \"#utility.yul\":2652:2661   */\n      dup3\n        /* \"#utility.yul\":2648:2666   */\n      add\n        /* \"#utility.yul\":2640:2666   */\n      swap1\n      pop\n        /* \"#utility.yul\":2676:2747   */\n      tag_80\n        /* \"#utility.yul\":2744:2745   */\n      0x00\n        /* \"#utility.yul\":2733:2742   */\n      dup4\n        /* \"#utility.yul\":2729:2746   */\n      add\n        /* \"#utility.yul\":2720:2726   */\n      dup5\n        /* \"#utility.yul\":2676:2747   */\n      tag_42\n      jump\t// in\n    tag_80:\n        /* \"#utility.yul\":2630:2754   */\n      swap3\n      swap2\n      pop\n      pop\n      jump\t// out\n        /* \"#utility.yul\":2760:3179   */\n    tag_32:\n      0x00\n        /* \"#utility.yul\":2964:2966   */\n      0x20\n        /* \"#utility.yul\":2953:2962   */\n      dup3\n        /* \"#utility.yul\":2949:2967   */\n      add\n        /* \"#utility.yul\":2941:2967   */\n      swap1\n      pop\n        /* \"#utility.yul\":3013:3022   */\n      dup2\n        /* \"#utility.yul\":3007:3011   */\n      dup2\n        /* \"#utility.yul\":3003:3023   */\n      sub\n        /* \"#utility.yul\":2999:3000   */\n      0x00\n        /* \"#utility.yul\":2988:2997   */\n      dup4\n        /* \"#utility.yul\":2984:3001   */\n      add\n        /* \"#utility.yul\":2977:3024   */\n      mstore\n        /* \"#utility.yul\":3041:3172   */\n      tag_82\n        /* \"#utility.yul\":3167:3171   */\n      dup2\n        /* \"#utility.yul\":3041:3172   */\n      tag_46\n      jump\t// in\n    tag_82:\n        /* \"#utility.yul\":3033:3172   */\n      swap1\n      pop\n        /* \"#utility.yul\":2931:3179   */\n      swap2\n      swap1\n      pop\n      jump\t// out\n        /* \"#utility.yul\":3185:3604   */\n    tag_39:\n      0x00\n        /* \"#utility.yul\":3389:3391   */\n      0x20\n        /* \"#utility.yul\":3378:3387   */\n      dup3\n        /* \"#utility.yul\":3374:3392   */\n      add\n        /* \"#utility.yul\":3366:3392   */\n      swap1\n      pop\n        /* \"#utility.yul\":3438:3447   */\n      dup2\n        /* \"#utility.yul\":3432:3436   */\n      dup2\n        /* \"#utility.yul\":3428:3448   */\n      sub\n        /* \"#utility.yul\":3424:3425   */\n      0x00\n        /* \"#utility.yul\":3413:3422   */\n      dup4\n        /* \"#utility.yul\":3409:3426   */\n      add\n        /* \"#utility.yul\":3402:3449   */\n      mstore\n        /* \"#utility.yul\":3466:3597   */\n      tag_84\n        /* \"#utility.yul\":3592:3596   */\n      dup2\n        /* \"#utility.yul\":3466:3597   */\n      tag_52\n      jump\t// in\n    tag_84:\n        /* \"#utility.yul\":3458:3597   */\n      swap1\n      pop\n        /* \"#utility.yul\":3356:3604   */\n      swap2\n      swap1\n      pop\n      jump\t// out\n        /* \"#utility.yul\":3610:4029   */\n    tag_36:\n      0x00\n        /* \"#utility.yul\":3814:3816   */\n      0x20\n        /* \"#utility.yul\":3803:3812   */\n      dup3\n        /* \"#utility.yul\":3799:3817   */\n      add\n        /* \"#utility.yul\":3791:3817   */\n      swap1\n      pop\n        /* \"#utility.yul\":3863:3872   */\n      dup2\n        /* \"#utility.yul\":3857:3861   */\n      dup2\n        /* \"#utility.yul\":3853:3873   */\n      sub\n        /* \"#utility.yul\":3849:3850   */\n      0x00\n        /* \"#utility.yul\":3838:3847   */\n      dup4\n        /* \"#utility.yul\":3834:3851   */\n      add\n        /* \"#utility.yul\":3827:3874   */\n      mstore\n        /* \"#utility.yul\":3891:4022   */\n      tag_86\n        /* \"#utility.yul\":4017:4021   */\n      dup2\n        /* \"#utility.yul\":3891:4022   */\n      tag_57\n      jump\t// in\n    tag_86:\n        /* \"#utility.yul\":3883:4022   */\n      swap1\n      pop\n        /* \"#utility.yul\":3781:4029   */\n      swap2\n      swap1\n      pop\n      jump\t// out\n        /* \"#utility.yul\":4035:4454   */\n    tag_24:\n      0x00\n        /* \"#utility.yul\":4239:4241   */\n      0x20\n        /* \"#utility.yul\":4228:4237   */\n      dup3\n        /* \"#utility.yul\":4224:4242   */\n      add\n        /* \"#utility.yul\":4216:4242   */\n      swap1\n      pop\n        /* \"#utility.yul\":4288:4297   */\n      dup2\n        /* \"#utility.yul\":4282:4286   */\n      dup2\n        /* \"#utility.yul\":4278:4298   */\n      sub\n        /* \"#utility.yul\":4274:4275   */\n      0x00\n        /* \"#utility.yul\":4263:4272   */\n      dup4\n        /* \"#utility.yul\":4259:4276   */\n      add\n        /* \"#utility.yul\":4252:4299   */\n      mstore\n        /* \"#utility.yul\":4316:4447   */\n      tag_88\n        /* \"#utility.yul\":4442:4446   */\n      dup2\n        /* \"#utility.yul\":4316:4447   */\n      tag_62\n      jump\t// in\n    tag_88:\n        /* \"#utility.yul\":4308:4447   */\n      swap1\n      pop\n        /* \"#utility.yul\":4206:4454   */\n      swap2\n      swap1\n      pop\n      jump\t// out\n        /* \"#utility.yul\":4460:4682   */\n    tag_10:\n      0x00\n        /* \"#utility.yul\":4591:4593   */\n      0x20\n        /* \"#utility.yul\":4580:4589   */\n      dup3\n        /* \"#utility.yul\":4576:4594   */\n      add\n        /* \"#utility.yul\":4568:4594   */\n      swap1\n      pop\n        /* \"#utility.yul\":4604:4675   */\n      tag_90\n        /* \"#utility.yul\":4672:4673   */\n      0x00\n        /* \"#utility.yul\":4661:4670   */\n      dup4\n        /* \"#utility.yul\":4657:4674   */\n      add\n        /* \"#utility.yul\":4648:4654   */\n      dup5\n        /* \"#utility.yul\":4604:4675   */\n      tag_73\n      jump\t// in\n    tag_90:\n        /* \"#utility.yul\":4558:4682   */\n      swap3\n      swap2\n      pop\n      pop\n      jump\t// out\n        /* \"#utility.yul\":4688:4835   */\n    tag_70:\n      0x00\n        /* \"#utility.yul\":4826:4829   */\n      dup2\n        /* \"#utility.yul\":4811:4829   */\n      swap1\n      pop\n        /* \"#utility.yul\":4801:4835   */\n      swap3\n      swap2\n      pop\n      pop\n      jump\t// out\n        /* \"#utility.yul\":4841:5010   */\n    tag_49:\n      0x00\n        /* \"#utility.yul\":4959:4965   */\n      dup3\n        /* \"#utility.yul\":4954:4957   */\n      dup3\n        /* \"#utility.yul\":4947:4966   */\n      mstore\n        /* \"#utility.yul\":4999:5003   */\n      0x20\n        /* \"#utility.yul\":4994:4997   */\n      dup3\n        /* \"#utility.yul\":4990:5004   */\n      add\n        /* \"#utility.yul\":4975:5004   */\n      swap1\n      pop\n        /* \"#utility.yul\":4937:5010   */\n      swap3\n      swap2\n      pop\n      pop\n      jump\t// out\n        /* \"#utility.yul\":5016:5112   */\n    tag_45:\n      0x00\n        /* \"#utility.yul\":5082:5106   */\n      tag_94\n        /* \"#utility.yul\":5100:5105   */\n      dup3\n        /* \"#utility.yul\":5082:5106   */\n      tag_95\n      jump\t// in\n    tag_94:\n        /* \"#utility.yul\":5071:5106   */\n      swap1\n      pop\n        /* \"#utility.yul\":5061:5112   */\n      swap2\n      swap1\n      pop\n      jump\t// out\n        /* \"#utility.yul\":5118:5244   */\n    tag_95:\n      0x00\n        /* \"#utility.yul\":5195:5237   */\n      0xffffffffffffffffffffffffffffffffffffffff\n        /* \"#utility.yul\":5188:5193   */\n      dup3\n        /* \"#utility.yul\":5184:5238   */\n      and\n        /* \"#utility.yul\":5173:5238   */\n      swap1\n      pop\n        /* \"#utility.yul\":5163:5244   */\n      swap2\n      swap1\n      pop\n      jump\t// out\n        /* \"#utility.yul\":5250:5327   */\n    tag_76:\n      0x00\n        /* \"#utility.yul\":5316:5321   */\n      dup2\n        /* \"#utility.yul\":5305:5321   */\n      swap1\n      pop\n        /* \"#utility.yul\":5295:5327   */\n      swap2\n      swap1\n      pop\n      jump\t// out\n        /* \"#utility.yul\":5333:5503   */\n    tag_51:\n        /* \"#utility.yul\":5473:5495   */\n      0x4661696c656420746f2073656e64204574686572000000000000000000000000\n        /* \"#utility.yul\":5469:5470   */\n      0x00\n        /* \"#utility.yul\":5461:5467   */\n      dup3\n        /* \"#utility.yul\":5457:5471   */\n      add\n        /* \"#utility.yul\":5450:5496   */\n      mstore\n        /* \"#utility.yul\":5439:5503   */\n      pop\n      jump\t// out\n        /* \"#utility.yul\":5509:5671   */\n    tag_56:\n        /* \"#utility.yul\":5649:5663   */\n      0x47616d65206973206f7665720000000000000000000000000000000000000000\n        /* \"#utility.yul\":5645:5646   */\n      0x00\n        /* \"#utility.yul\":5637:5643   */\n      dup3\n        /* \"#utility.yul\":5633:5647   */\n      add\n        /* \"#utility.yul\":5626:5664   */\n      mstore\n        /* \"#utility.yul\":5615:5671   */\n      pop\n      jump\t// out\n        /* \"#utility.yul\":5677:5852   */\n    tag_61:\n        /* \"#utility.yul\":5817:5844   */\n      0x596f752063616e206f6e6c792073656e64203120457468657200000000000000\n        /* \"#utility.yul\":5813:5814   */\n      0x00\n        /* \"#utility.yul\":5805:5811   */\n      dup3\n        /* \"#utility.yul\":5801:5815   */\n      add\n        /* \"#utility.yul\":5794:5845   */\n      mstore\n        /* \"#utility.yul\":5783:5852   */\n      pop\n      jump\t// out\n        /* \"#utility.yul\":5858:6018   */\n    tag_66:\n        /* \"#utility.yul\":5998:6010   */\n      0x4e6f742077696e6e657200000000000000000000000000000000000000000000\n        /* \"#utility.yul\":5994:5995   */\n      0x00\n        /* \"#utility.yul\":5986:5992   */\n      dup3\n        /* \"#utility.yul\":5982:5996   */\n      add\n        /* \"#utility.yul\":5975:6011   */\n      mstore\n        /* \"#utility.yul\":5964:6018   */\n      pop\n      jump\t// out\n        /* \"#utility.yul\":6024:6138   */\n    tag_72:\n        /* \"#utility.yul\":6130:6138   */\n      pop\n      jump\t// out\n\n    auxdata: 0xa26469706673582212209fcf322f70fe6a9f536c14e2ddd90bdcf54c0913e9d005e24dfc6695622e1f4764736f6c63430008030033\n}\n",
				"bytecode": {
					"linkReferences": {},
					"object": "6080604052676124fee993bc000060005534801561001c57600080fd5b506105d68061002c6000396000f3fe60806040526004361061003f5760003560e01c8063953b8fb814610044578063b88a802f1461006f578063d0e30db014610086578063dfbf53ae14610090575b600080fd5b34801561005057600080fd5b506100596100bb565b6040516100669190610486565b60405180910390f35b34801561007b57600080fd5b506100846100c1565b005b61008e610200565b005b34801561009c57600080fd5b506100a56102e3565b6040516100b291906103eb565b60405180910390f35b60005481565b600160009054906101000a900473ffffffffffffffffffffffffffffffffffffffff1673ffffffffffffffffffffffffffffffffffffffff163373ffffffffffffffffffffffffffffffffffffffff1614610151576040517f08c379a000000000000000000000000000000000000000000000000000000000815260040161014890610466565b60405180910390fd5b60003373ffffffffffffffffffffffffffffffffffffffff1647604051610177906103d6565b60006040518083038185875af1925050503d80600081146101b4576040519150601f19603f3d011682016040523d82523d6000602084013e6101b9565b606091505b50509050806101fd576040517f08c379a00000000000000000000000000000000000000000000000000000000081526004016101f490610406565b60405180910390fd5b50565b670de0b6b3a7640000341461024a576040517f08c379a000000000000000000000000000000000000000000000000000000000815260040161024190610446565b60405180910390fd5b6000479050600054811115610294576040517f08c379a000000000000000000000000000000000000000000000000000000000815260040161028b90610426565b60405180910390fd5b6000548114156102e05733600160006101000a81548173ffffffffffffffffffffffffffffffffffffffff021916908373ffffffffffffffffffffffffffffffffffffffff1602179055505b50565b600160009054906101000a900473ffffffffffffffffffffffffffffffffffffffff1681565b610312816104bd565b82525050565b60006103256014836104ac565b9150610330826104f9565b602082019050919050565b6000610348600c836104ac565b915061035382610522565b602082019050919050565b600061036b6019836104ac565b91506103768261054b565b602082019050919050565b600061038e600a836104ac565b915061039982610574565b602082019050919050565b60006103b16000836104a1565b91506103bc8261059d565b600082019050919050565b6103d0816104ef565b82525050565b60006103e1826103a4565b9150819050919050565b60006020820190506104006000830184610309565b92915050565b6000602082019050818103600083015261041f81610318565b9050919050565b6000602082019050818103600083015261043f8161033b565b9050919050565b6000602082019050818103600083015261045f8161035e565b9050919050565b6000602082019050818103600083015261047f81610381565b9050919050565b600060208201905061049b60008301846103c7565b92915050565b600081905092915050565b600082825260208201905092915050565b60006104c8826104cf565b9050919050565b600073ffffffffffffffffffffffffffffffffffffffff82169050919050565b6000819050919050565b7f4661696c656420746f2073656e64204574686572000000000000000000000000600082015250565b7f47616d65206973206f7665720000000000000000000000000000000000000000600082015250565b7f596f752063616e206f6e6c792073656e64203120457468657200000000000000600082015250565b7f4e6f742077696e6e657200000000000000000000000000000000000000000000600082015250565b5056fea26469706673582212209fcf322f70fe6a9f536c14e2ddd90bdcf54c0913e9d005e24dfc6695622e1f4764736f6c63430008030033",
					"opcodes": "PUSH1 0x80 PUSH1 0x40 MSTORE PUSH8 0x6124FEE993BC0000 PUSH1 0x0 SSTORE CALLVALUE DUP1 ISZERO PUSH2 0x1C JUMPI PUSH1 0x0 DUP1 REVERT JUMPDEST POP PUSH2 0x5D6 DUP1 PUSH2 0x2C PUSH1 0x0 CODECOPY PUSH1 0x0 RETURN INVALID PUSH1 0x80 PUSH1 0x40 MSTORE PUSH1 0x4 CALLDATASIZE LT PUSH2 0x3F JUMPI PUSH1 0x0 CALLDATALOAD PUSH1 0xE0 SHR DUP1 PUSH4 0x953B8FB8 EQ PUSH2 0x44 JUMPI DUP1 PUSH4 0xB88A802F EQ PUSH2 0x6F JUMPI DUP1 PUSH4 0xD0E30DB0 EQ PUSH2 0x86 JUMPI DUP1 PUSH4 0xDFBF53AE EQ PUSH2 0x90 JUMPI JUMPDEST PUSH1 0x0 DUP1 REVERT JUMPDEST CALLVALUE DUP1 ISZERO PUSH2 0x50 JUMPI PUSH1 0x0 DUP1 REVERT JUMPDEST POP PUSH2 0x59 PUSH2 0xBB JUMP JUMPDEST PUSH1 0x40 MLOAD PUSH2 0x66 SWAP2 SWAP1 PUSH2 0x486 JUMP JUMPDEST PUSH1 0x40 MLOAD DUP1 SWAP2 SUB SWAP1 RETURN JUMPDEST CALLVALUE DUP1 ISZERO PUSH2 0x7B JUMPI PUSH1 0x0 DUP1 REVERT JUMPDEST POP PUSH2 0x84 PUSH2 0xC1 JUMP JUMPDEST STOP JUMPDEST PUSH2 0x8E PUSH2 0x200 JUMP JUMPDEST STOP JUMPDEST CALLVALUE DUP1 ISZERO PUSH2 0x9C JUMPI PUSH1 0x0 DUP1 REVERT JUMPDEST POP PUSH2 0xA5 PUSH2 0x2E3 JUMP JUMPDEST PUSH1 0x40 MLOAD PUSH2 0xB2 SWAP2 SWAP1 PUSH2 0x3EB JUMP JUMPDEST PUSH1 0x40 MLOAD DUP1 SWAP2 SUB SWAP1 RETURN JUMPDEST PUSH1 0x0 SLOAD DUP2 JUMP JUMPDEST PUSH1 0x1 PUSH1 0x0 SWAP1 SLOAD SWAP1 PUSH2 0x100 EXP SWAP1 DIV PUSH20 0xFFFFFFFFFFFFFFFFFFFFFFFFFFFFFFFFFFFFFFFF AND PUSH20 0xFFFFFFFFFFFFFFFFFFFFFFFFFFFFFFFFFFFFFFFF AND CALLER PUSH20 0xFFFFFFFFFFFFFFFFFFFFFFFFFFFFFFFFFFFFFFFF AND EQ PUSH2 0x151 JUMPI PUSH1 0x40 MLOAD PUSH32 0x8C379A000000000000000000000000000000000000000000000000000000000 DUP2 MSTORE PUSH1 0x4 ADD PUSH2 0x148 SWAP1 PUSH2 0x466 JUMP JUMPDEST PUSH1 0x40 MLOAD DUP1 SWAP2 SUB SWAP1 REVERT JUMPDEST PUSH1 0x0 CALLER PUSH20 0xFFFFFFFFFFFFFFFFFFFFFFFFFFFFFFFFFFFFFFFF AND SELFBALANCE PUSH1 0x40 MLOAD PUSH2 0x177 SWAP1 PUSH2 0x3D6 JUMP JUMPDEST PUSH1 0x0 PUSH1 0x40 MLOAD DUP1 DUP4 SUB DUP2 DUP6 DUP8 GAS CALL SWAP3 POP POP POP RETURNDATASIZE DUP1 PUSH1 0x0 DUP2 EQ PUSH2 0x1B4 JUMPI PUSH1 0x40 MLOAD SWAP2 POP PUSH1 0x1F NOT PUSH1 0x3F RETURNDATASIZE ADD AND DUP3 ADD PUSH1 0x40 MSTORE RETURNDATASIZE DUP3 MSTORE RETURNDATASIZE PUSH1 0x0 PUSH1 0x20 DUP5 ADD RETURNDATACOPY PUSH2 0x1B9 JUMP JUMPDEST PUSH1 0x60 SWAP2 POP JUMPDEST POP POP SWAP1 POP DUP1 PUSH2 0x1FD JUMPI PUSH1 0x40 MLOAD PUSH32 0x8C379A000000000000000000000000000000000000000000000000000000000 DUP2 MSTORE PUSH1 0x4 ADD PUSH2 0x1F4 SWAP1 PUSH2 0x406 JUMP JUMPDEST PUSH1 0x40 MLOAD DUP1 SWAP2 SUB SWAP1 REVERT JUMPDEST POP JUMP JUMPDEST PUSH8 0xDE0B6B3A7640000 CALLVALUE EQ PUSH2 0x24A JUMPI PUSH1 0x40 MLOAD PUSH32 0x8C379A000000000000000000000000000000000000000000000000000000000 DUP2 MSTORE PUSH1 0x4 ADD PUSH2 0x241 SWAP1 PUSH2 0x446 JUMP JUMPDEST PUSH1 0x40 MLOAD DUP1 SWAP2 SUB SWAP1 REVERT JUMPDEST PUSH1 0x0 SELFBALANCE SWAP1 POP PUSH1 0x0 SLOAD DUP2 GT ISZERO PUSH2 0x294 JUMPI PUSH1 0x40 MLOAD PUSH32 0x8C379A000000000000000000000000000000000000000000000000000000000 DUP2 MSTORE PUSH1 0x4 ADD PUSH2 0x28B SWAP1 PUSH2 0x426 JUMP JUMPDEST PUSH1 0x40 MLOAD DUP1 SWAP2 SUB SWAP1 REVERT JUMPDEST PUSH1 0x0 SLOAD DUP2 EQ ISZERO PUSH2 0x2E0 JUMPI CALLER PUSH1 0x1 PUSH1 0x0 PUSH2 0x100 EXP DUP2 SLOAD DUP2 PUSH20 0xFFFFFFFFFFFFFFFFFFFFFFFFFFFFFFFFFFFFFFFF MUL NOT AND SWAP1 DUP4 PUSH20 0xFFFFFFFFFFFFFFFFFFFFFFFFFFFFFFFFFFFFFFFF AND MUL OR SWAP1 SSTORE POP JUMPDEST POP JUMP JUMPDEST PUSH1 0x1 PUSH1 0x0 SWAP1 SLOAD SWAP1 PUSH2 0x100 EXP SWAP1 DIV PUSH20 0xFFFFFFFFFFFFFFFFFFFFFFFFFFFFFFFFFFFFFFFF AND DUP2 JUMP JUMPDEST PUSH2 0x312 DUP2 PUSH2 0x4BD JUMP JUMPDEST DUP3 MSTORE POP POP JUMP JUMPDEST PUSH1 0x0 PUSH2 0x325 PUSH1 0x14 DUP4 PUSH2 0x4AC JUMP JUMPDEST SWAP2 POP PUSH2 0x330 DUP3 PUSH2 0x4F9 JUMP JUMPDEST PUSH1 0x20 DUP3 ADD SWAP1 POP SWAP2 SWAP1 POP JUMP JUMPDEST PUSH1 0x0 PUSH2 0x348 PUSH1 0xC DUP4 PUSH2 0x4AC JUMP JUMPDEST SWAP2 POP PUSH2 0x353 DUP3 PUSH2 0x522 JUMP JUMPDEST PUSH1 0x20 DUP3 ADD SWAP1 POP SWAP2 SWAP1 POP JUMP JUMPDEST PUSH1 0x0 PUSH2 0x36B PUSH1 0x19 DUP4 PUSH2 0x4AC JUMP JUMPDEST SWAP2 POP PUSH2 0x376 DUP3 PUSH2 0x54B JUMP JUMPDEST PUSH1 0x20 DUP3 ADD SWAP1 POP SWAP2 SWAP1 POP JUMP JUMPDEST PUSH1 0x0 PUSH2 0x38E PUSH1 0xA DUP4 PUSH2 0x4AC JUMP JUMPDEST SWAP2 POP PUSH2 0x399 DUP3 PUSH2 0x574 JUMP JUMPDEST PUSH1 0x20 DUP3 ADD SWAP1 POP SWAP2 SWAP1 POP JUMP JUMPDEST PUSH1 0x0 PUSH2 0x3B1 PUSH1 0x0 DUP4 PUSH2 0x4A1 JUMP JUMPDEST SWAP2 POP PUSH2 0x3BC DUP3 PUSH2 0x59D JUMP JUMPDEST PUSH1 0x0 DUP3 ADD SWAP1 POP SWAP2 SWAP1 POP JUMP JUMPDEST PUSH2 0x3D0 DUP2 PUSH2 0x4EF JUMP JUMPDEST DUP3 MSTORE POP POP JUMP JUMPDEST PUSH1 0x0 PUSH2 0x3E1 DUP3 PUSH2 0x3A4 JUMP JUMPDEST SWAP2 POP DUP2 SWAP1 POP SWAP2 SWAP1 POP JUMP JUMPDEST PUSH1 0x0 PUSH1 0x20 DUP3 ADD SWAP1 POP PUSH2 0x400 PUSH1 0x0 DUP4 ADD DUP5 PUSH2 0x309 JUMP JUMPDEST SWAP3 SWAP2 POP POP JUMP JUMPDEST PUSH1 0x0 PUSH1 0x20 DUP3 ADD SWAP1 POP DUP2 DUP2 SUB PUSH1 0x0 DUP4 ADD MSTORE PUSH2 0x41F DUP2 PUSH2 0x318 JUMP JUMPDEST SWAP1 POP SWAP2 SWAP1 POP JUMP JUMPDEST PUSH1 0x0 PUSH1 0x20 DUP3 ADD SWAP1 POP DUP2 DUP2 SUB PUSH1 0x0 DUP4 ADD MSTORE PUSH2 0x43F DUP2 PUSH2 0x33B JUMP JUMPDEST SWAP1 POP SWAP2 SWAP1 POP JUMP JUMPDEST PUSH1 0x0 PUSH1 0x20 DUP3 ADD SWAP1 POP DUP2 DUP2 SUB PUSH1 0x0 DUP4 ADD MSTORE PUSH2 0x45F DUP2 PUSH2 0x35E JUMP JUMPDEST SWAP1 POP SWAP2 SWAP1 POP JUMP JUMPDEST PUSH1 0x0 PUSH1 0x20 DUP3 ADD SWAP1 POP DUP2 DUP2 SUB PUSH1 0x0 DUP4 ADD MSTORE PUSH2 0x47F DUP2 PUSH2 0x381 JUMP JUMPDEST SWAP1 POP SWAP2 SWAP1 POP JUMP JUMPDEST PUSH1 0x0 PUSH1 0x20 DUP3 ADD SWAP1 POP PUSH2 0x49B PUSH1 0x0 DUP4 ADD DUP5 PUSH2 0x3C7 JUMP JUMPDEST SWAP3 SWAP2 POP POP JUMP JUMPDEST PUSH1 0x0 DUP2 SWAP1 POP SWAP3 SWAP2 POP POP JUMP JUMPDEST PUSH1 0x0 DUP3 DUP3 MSTORE PUSH1 0x20 DUP3 ADD SWAP1 POP SWAP3 SWAP2 POP POP JUMP JUMPDEST PUSH1 0x0 PUSH2 0x4C8 DUP3 PUSH2 0x4CF JUMP JUMPDEST SWAP1 POP SWAP2 SWAP1 POP JUMP JUMPDEST PUSH1 0x0 PUSH20 0xFFFFFFFFFFFFFFFFFFFFFFFFFFFFFFFFFFFFFFFF DUP3 AND SWAP1 POP SWAP2 SWAP1 POP JUMP JUMPDEST PUSH1 0x0 DUP2 SWAP1 POP SWAP2 SWAP1 POP JUMP JUMPDEST PUSH32 0x4661696C656420746F2073656E64204574686572000000000000000000000000 PUSH1 0x0 DUP3 ADD MSTORE POP JUMP JUMPDEST PUSH32 0x47616D65206973206F7665720000000000000000000000000000000000000000 PUSH1 0x0 DUP3 ADD MSTORE POP JUMP JUMPDEST PUSH32 0x596F752063616E206F6E6C792073656E64203120457468657200000000000000 PUSH1 0x0 DUP3 ADD MSTORE POP JUMP JUMPDEST PUSH32 0x4E6F742077696E6E657200000000000000000000000000000000000000000000 PUSH1 0x0 DUP3 ADD MSTORE POP JUMP JUMPDEST POP JUMP INVALID LOG2 PUSH5 0x6970667358 0x22 SLT KECCAK256 SWAP16 0xCF ORIGIN 0x2F PUSH17 0xFE6A9F536C14E2DDD90BDCF54C0913E9D0 SDIV 0xE2 0x4D 0xFC PUSH7 0x95622E1F476473 PUSH16 0x6C634300080300330000000000000000 "
				},
				"gasEstimates": {
					"creation": {
						"codeDepositCost": "298800",
						"executionCost": "20343",
						"totalCost": "319143"
					},
					"external": {
						"claimReward()": "infinite",
						"deposit()": "22697",
						"targetAmount()": "1107",
						"winner()": "1258"
					}
				},
				"methodIdentifiers": {
					"claimReward()": "b88a802f",
					"deposit()": "d0e30db0",
					"targetAmount()": "953b8fb8",
					"winner()": "dfbf53ae"
				}
			},
			"storageLayout": {
				"storage": [
					{
						"astId": 42,
						"contract": "contracts/match3/EtherGame.sol:EtherGame",
						"label": "targetAmount",
						"offset": 0,
						"slot": "0",
						"type": "t_uint256"
					},
					{
						"astId": 44,
						"contract": "contracts/match3/EtherGame.sol:EtherGame",
						"label": "winner",
						"offset": 0,
						"slot": "1",
						"type": "t_address"
					}
				],
				"types": {
					"t_address": {
						"encoding": "inplace",
						"label": "address",
						"numberOfBytes": "20"
					},
					"t_uint256": {
						"encoding": "inplace",
						"label": "uint256",
						"numberOfBytes": "32"
					}
				}
			},
			"userdoc": {
				"kind": "user",
				"methods": {},
				"version": 1
			}
		}
	}
}